{
	"contract.sol": {
		"Test": {
			"abi": [
				{
					"inputs": [
						{
							"internalType": "uint256",
							"name": "_a",
							"type": "uint256"
						},
						{
							"internalType": "uint256",
							"name": "_b",
							"type": "uint256"
						}
					],
					"name": "inputnum",
					"outputs": [],
					"stateMutability": "nonpayable",
					"type": "function"
				},
				{
					"inputs": [],
					"name": "multi",
					"outputs": [
						{
							"internalType": "uint256",
							"name": "",
							"type": "uint256"
						}
					],
					"stateMutability": "view",
					"type": "function"
				},
				{
					"inputs": [],
					"name": "sum",
					"outputs": [
						{
							"internalType": "uint256",
							"name": "",
							"type": "uint256"
						}
					],
					"stateMutability": "view",
					"type": "function"
				}
			],
			"devdoc": {
				"kind": "dev",
				"methods": {},
				"version": 1
			},
			"evm": {
				"assembly": "    /* \"contract.sol\":60:449  contract Test{... */\n  mstore(0x40, 0x80)\n  callvalue\n  dup1\n  iszero\n  tag_1\n  jumpi\n  0x00\n  dup1\n  revert\ntag_1:\n  pop\n  dataSize(sub_0)\n  dup1\n  dataOffset(sub_0)\n  0x00\n  codecopy\n  0x00\n  return\nstop\n\nsub_0: assembly {\n        /* \"contract.sol\":60:449  contract Test{... */\n      mstore(0x40, 0x80)\n      callvalue\n      dup1\n      iszero\n      tag_1\n      jumpi\n      0x00\n      dup1\n      revert\n    tag_1:\n      pop\n      jumpi(tag_2, lt(calldatasize, 0x04))\n      shr(0xe0, calldataload(0x00))\n      dup1\n      0x1679ec0e\n      eq\n      tag_3\n      jumpi\n      dup1\n      0x1b8f5d50\n      eq\n      tag_4\n      jumpi\n      dup1\n      0x853255cc\n      eq\n      tag_5\n      jumpi\n    tag_2:\n      0x00\n      dup1\n      revert\n        /* \"contract.sol\":131:215  function inputnum(uint _a, uint _b) public{... */\n    tag_3:\n      tag_6\n      0x04\n      dup1\n      calldatasize\n      sub\n      dup2\n      add\n      swap1\n      tag_7\n      swap2\n      swap1\n      tag_8\n      jump\t// in\n    tag_7:\n      tag_9\n      jump\t// in\n    tag_6:\n      stop\n        /* \"contract.sol\":370:442  function multi() public view returns (uint){... */\n    tag_4:\n      tag_10\n      tag_11\n      jump\t// in\n    tag_10:\n      mload(0x40)\n      tag_12\n      swap2\n      swap1\n      tag_13\n      jump\t// in\n    tag_12:\n      mload(0x40)\n      dup1\n      swap2\n      sub\n      swap1\n      return\n        /* \"contract.sol\":256:326  function sum() public view returns (uint){... */\n    tag_5:\n      tag_14\n      tag_15\n      jump\t// in\n    tag_14:\n      mload(0x40)\n      tag_16\n      swap2\n      swap1\n      tag_13\n      jump\t// in\n    tag_16:\n      mload(0x40)\n      dup1\n      swap2\n      sub\n      swap1\n      return\n        /* \"contract.sol\":131:215  function inputnum(uint _a, uint _b) public{... */\n    tag_9:\n        /* \"contract.sol\":188:190  _a */\n      dup2\n        /* \"contract.sol\":184:185  a */\n      0x00\n        /* \"contract.sol\":184:190  a = _a */\n      dup2\n      swap1\n      sstore\n      pop\n        /* \"contract.sol\":205:207  _b */\n      dup1\n        /* \"contract.sol\":201:202  b */\n      0x01\n        /* \"contract.sol\":201:207  b = _b */\n      dup2\n      swap1\n      sstore\n      pop\n        /* \"contract.sol\":131:215  function inputnum(uint _a, uint _b) public{... */\n      pop\n      pop\n      jump\t// out\n        /* \"contract.sol\":370:442  function multi() public view returns (uint){... */\n    tag_11:\n        /* \"contract.sol\":408:412  uint */\n      0x00\n        /* \"contract.sol\":433:434  b */\n      sload(0x01)\n        /* \"contract.sol\":431:432  a */\n      sload(0x00)\n        /* \"contract.sol\":431:434  a*b */\n      tag_19\n      swap2\n      swap1\n      tag_20\n      jump\t// in\n    tag_19:\n        /* \"contract.sol\":424:434  return a*b */\n      swap1\n      pop\n        /* \"contract.sol\":370:442  function multi() public view returns (uint){... */\n      swap1\n      jump\t// out\n        /* \"contract.sol\":256:326  function sum() public view returns (uint){... */\n    tag_15:\n        /* \"contract.sol\":292:296  uint */\n      0x00\n        /* \"contract.sol\":317:318  b */\n      sload(0x01)\n        /* \"contract.sol\":315:316  a */\n      sload(0x00)\n        /* \"contract.sol\":315:318  a+b */\n      tag_22\n      swap2\n      swap1\n      tag_23\n      jump\t// in\n    tag_22:\n        /* \"contract.sol\":308:318  return a+b */\n      swap1\n      pop\n        /* \"contract.sol\":256:326  function sum() public view returns (uint){... */\n      swap1\n      jump\t// out\n        /* \"#utility.yul\":88:205   */\n    tag_25:\n        /* \"#utility.yul\":197:198   */\n      0x00\n        /* \"#utility.yul\":194:195   */\n      dup1\n        /* \"#utility.yul\":187:199   */\n      revert\n        /* \"#utility.yul\":334:411   */\n    tag_27:\n        /* \"#utility.yul\":371:378   */\n      0x00\n        /* \"#utility.yul\":400:405   */\n      dup2\n        /* \"#utility.yul\":389:405   */\n      swap1\n      pop\n        /* \"#utility.yul\":334:411   */\n      swap2\n      swap1\n      pop\n      jump\t// out\n        /* \"#utility.yul\":417:539   */\n    tag_28:\n        /* \"#utility.yul\":490:514   */\n      tag_38\n        /* \"#utility.yul\":508:513   */\n      dup2\n        /* \"#utility.yul\":490:514   */\n      tag_27\n      jump\t// in\n    tag_38:\n        /* \"#utility.yul\":483:488   */\n      dup2\n        /* \"#utility.yul\":480:515   */\n      eq\n        /* \"#utility.yul\":470:533   */\n      tag_39\n      jumpi\n        /* \"#utility.yul\":529:530   */\n      0x00\n        /* \"#utility.yul\":526:527   */\n      dup1\n        /* \"#utility.yul\":519:531   */\n      revert\n        /* \"#utility.yul\":470:533   */\n    tag_39:\n        /* \"#utility.yul\":417:539   */\n      pop\n      jump\t// out\n        /* \"#utility.yul\":545:684   */\n    tag_29:\n        /* \"#utility.yul\":591:596   */\n      0x00\n        /* \"#utility.yul\":629:635   */\n      dup2\n        /* \"#utility.yul\":616:636   */\n      calldataload\n        /* \"#utility.yul\":607:636   */\n      swap1\n      pop\n        /* \"#utility.yul\":645:678   */\n      tag_41\n        /* \"#utility.yul\":672:677   */\n      dup2\n        /* \"#utility.yul\":645:678   */\n      tag_28\n      jump\t// in\n    tag_41:\n        /* \"#utility.yul\":545:684   */\n      swap3\n      swap2\n      pop\n      pop\n      jump\t// out\n        /* \"#utility.yul\":690:1164   */\n    tag_8:\n        /* \"#utility.yul\":758:764   */\n      0x00\n        /* \"#utility.yul\":766:772   */\n      dup1\n        /* \"#utility.yul\":815:817   */\n      0x40\n        /* \"#utility.yul\":803:812   */\n      dup4\n        /* \"#utility.yul\":794:801   */\n      dup6\n        /* \"#utility.yul\":790:813   */\n      sub\n        /* \"#utility.yul\":786:818   */\n      slt\n        /* \"#utility.yul\":783:902   */\n      iszero\n      tag_43\n      jumpi\n        /* \"#utility.yul\":821:900   */\n      tag_44\n      tag_25\n      jump\t// in\n    tag_44:\n        /* \"#utility.yul\":783:902   */\n    tag_43:\n        /* \"#utility.yul\":941:942   */\n      0x00\n        /* \"#utility.yul\":966:1019   */\n      tag_45\n        /* \"#utility.yul\":1011:1018   */\n      dup6\n        /* \"#utility.yul\":1002:1008   */\n      dup3\n        /* \"#utility.yul\":991:1000   */\n      dup7\n        /* \"#utility.yul\":987:1009   */\n      add\n        /* \"#utility.yul\":966:1019   */\n      tag_29\n      jump\t// in\n    tag_45:\n        /* \"#utility.yul\":956:1019   */\n      swap3\n      pop\n        /* \"#utility.yul\":912:1029   */\n      pop\n        /* \"#utility.yul\":1068:1070   */\n      0x20\n        /* \"#utility.yul\":1094:1147   */\n      tag_46\n        /* \"#utility.yul\":1139:1146   */\n      dup6\n        /* \"#utility.yul\":1130:1136   */\n      dup3\n        /* \"#utility.yul\":1119:1128   */\n      dup7\n        /* \"#utility.yul\":1115:1137   */\n      add\n        /* \"#utility.yul\":1094:1147   */\n      tag_29\n      jump\t// in\n    tag_46:\n        /* \"#utility.yul\":1084:1147   */\n      swap2\n      pop\n        /* \"#utility.yul\":1039:1157   */\n      pop\n        /* \"#utility.yul\":690:1164   */\n      swap3\n      pop\n      swap3\n      swap1\n      pop\n      jump\t// out\n        /* \"#utility.yul\":1170:1288   */\n    tag_30:\n        /* \"#utility.yul\":1257:1281   */\n      tag_48\n        /* \"#utility.yul\":1275:1280   */\n      dup2\n        /* \"#utility.yul\":1257:1281   */\n      tag_27\n      jump\t// in\n    tag_48:\n        /* \"#utility.yul\":1252:1255   */\n      dup3\n        /* \"#utility.yul\":1245:1282   */\n      mstore\n        /* \"#utility.yul\":1170:1288   */\n      pop\n      pop\n      jump\t// out\n        /* \"#utility.yul\":1294:1516   */\n    tag_13:\n        /* \"#utility.yul\":1387:1391   */\n      0x00\n        /* \"#utility.yul\":1425:1427   */\n      0x20\n        /* \"#utility.yul\":1414:1423   */\n      dup3\n        /* \"#utility.yul\":1410:1428   */\n      add\n        /* \"#utility.yul\":1402:1428   */\n      swap1\n      pop\n        /* \"#utility.yul\":1438:1509   */\n      tag_50\n        /* \"#utility.yul\":1506:1507   */\n      0x00\n        /* \"#utility.yul\":1495:1504   */\n      dup4\n        /* \"#utility.yul\":1491:1508   */\n      add\n        /* \"#utility.yul\":1482:1488   */\n      dup5\n        /* \"#utility.yul\":1438:1509   */\n      tag_30\n      jump\t// in\n    tag_50:\n        /* \"#utility.yul\":1294:1516   */\n      swap3\n      swap2\n      pop\n      pop\n      jump\t// out\n        /* \"#utility.yul\":1522:1702   */\n    tag_31:\n        /* \"#utility.yul\":1570:1647   */\n      0x4e487b7100000000000000000000000000000000000000000000000000000000\n        /* \"#utility.yul\":1567:1568   */\n      0x00\n        /* \"#utility.yul\":1560:1648   */\n      mstore\n        /* \"#utility.yul\":1667:1671   */\n      0x11\n        /* \"#utility.yul\":1664:1665   */\n      0x04\n        /* \"#utility.yul\":1657:1672   */\n      mstore\n        /* \"#utility.yul\":1691:1695   */\n      0x24\n        /* \"#utility.yul\":1688:1689   */\n      0x00\n        /* \"#utility.yul\":1681:1696   */\n      revert\n        /* \"#utility.yul\":1708:2118   */\n    tag_20:\n        /* \"#utility.yul\":1748:1755   */\n      0x00\n        /* \"#utility.yul\":1771:1791   */\n      tag_53\n        /* \"#utility.yul\":1789:1790   */\n      dup3\n        /* \"#utility.yul\":1771:1791   */\n      tag_27\n      jump\t// in\n    tag_53:\n        /* \"#utility.yul\":1766:1791   */\n      swap2\n      pop\n        /* \"#utility.yul\":1805:1825   */\n      tag_54\n        /* \"#utility.yul\":1823:1824   */\n      dup4\n        /* \"#utility.yul\":1805:1825   */\n      tag_27\n      jump\t// in\n    tag_54:\n        /* \"#utility.yul\":1800:1825   */\n      swap3\n      pop\n        /* \"#utility.yul\":1860:1861   */\n      dup3\n        /* \"#utility.yul\":1857:1858   */\n      dup3\n        /* \"#utility.yul\":1853:1862   */\n      mul\n        /* \"#utility.yul\":1882:1912   */\n      tag_55\n        /* \"#utility.yul\":1900:1911   */\n      dup2\n        /* \"#utility.yul\":1882:1912   */\n      tag_27\n      jump\t// in\n    tag_55:\n        /* \"#utility.yul\":1871:1912   */\n      swap2\n      pop\n        /* \"#utility.yul\":2061:2062   */\n      dup3\n        /* \"#utility.yul\":2052:2059   */\n      dup3\n        /* \"#utility.yul\":2048:2063   */\n      div\n        /* \"#utility.yul\":2045:2046   */\n      dup5\n        /* \"#utility.yul\":2042:2064   */\n      eq\n        /* \"#utility.yul\":2022:2023   */\n      dup4\n        /* \"#utility.yul\":2015:2024   */\n      iszero\n        /* \"#utility.yul\":1995:2078   */\n      or\n        /* \"#utility.yul\":1972:2111   */\n      tag_56\n      jumpi\n        /* \"#utility.yul\":2091:2109   */\n      tag_57\n      tag_31\n      jump\t// in\n    tag_57:\n        /* \"#utility.yul\":1972:2111   */\n    tag_56:\n        /* \"#utility.yul\":1756:2118   */\n      pop\n        /* \"#utility.yul\":1708:2118   */\n      swap3\n      swap2\n      pop\n      pop\n      jump\t// out\n        /* \"#utility.yul\":2124:2315   */\n    tag_23:\n        /* \"#utility.yul\":2164:2167   */\n      0x00\n        /* \"#utility.yul\":2183:2203   */\n      tag_59\n        /* \"#utility.yul\":2201:2202   */\n      dup3\n        /* \"#utility.yul\":2183:2203   */\n      tag_27\n      jump\t// in\n    tag_59:\n        /* \"#utility.yul\":2178:2203   */\n      swap2\n      pop\n        /* \"#utility.yul\":2217:2237   */\n      tag_60\n        /* \"#utility.yul\":2235:2236   */\n      dup4\n        /* \"#utility.yul\":2217:2237   */\n      tag_27\n      jump\t// in\n    tag_60:\n        /* \"#utility.yul\":2212:2237   */\n      swap3\n      pop\n        /* \"#utility.yul\":2260:2261   */\n      dup3\n        /* \"#utility.yul\":2257:2258   */\n      dup3\n        /* \"#utility.yul\":2253:2262   */\n      add\n        /* \"#utility.yul\":2246:2262   */\n      swap1\n      pop\n        /* \"#utility.yul\":2281:2284   */\n      dup1\n        /* \"#utility.yul\":2278:2279   */\n      dup3\n        /* \"#utility.yul\":2275:2285   */\n      gt\n        /* \"#utility.yul\":2272:2308   */\n      iszero\n      tag_61\n      jumpi\n        /* \"#utility.yul\":2288:2306   */\n      tag_62\n      tag_31\n      jump\t// in\n    tag_62:\n        /* \"#utility.yul\":2272:2308   */\n    tag_61:\n        /* \"#utility.yul\":2124:2315   */\n      swap3\n      swap2\n      pop\n      pop\n      jump\t// out\n\n    auxdata: 0xa26469706673582212205b03d730404ceb380cef708b83630acf4511896efdc2f15f387889e4309752d864736f6c63430008120033\n}\n",
				"bytecode": {
					"linkReferences": {},
					"object": "608060405234801561001057600080fd5b5061025e806100206000396000f3fe608060405234801561001057600080fd5b50600436106100415760003560e01c80631679ec0e146100465780631b8f5d5014610062578063853255cc14610080575b600080fd5b610060600480360381019061005b9190610119565b61009e565b005b61006a6100b0565b6040516100779190610168565b60405180910390f35b6100886100c7565b6040516100959190610168565b60405180910390f35b81600081905550806001819055505050565b60006001546000546100c291906101b2565b905090565b60006001546000546100d991906101f4565b905090565b600080fd5b6000819050919050565b6100f6816100e3565b811461010157600080fd5b50565b600081359050610113816100ed565b92915050565b600080604083850312156101305761012f6100de565b5b600061013e85828601610104565b925050602061014f85828601610104565b9150509250929050565b610162816100e3565b82525050565b600060208201905061017d6000830184610159565b92915050565b7f4e487b7100000000000000000000000000000000000000000000000000000000600052601160045260246000fd5b60006101bd826100e3565b91506101c8836100e3565b92508282026101d6816100e3565b915082820484148315176101ed576101ec610183565b5b5092915050565b60006101ff826100e3565b915061020a836100e3565b925082820190508082111561022257610221610183565b5b9291505056fea26469706673582212205b03d730404ceb380cef708b83630acf4511896efdc2f15f387889e4309752d864736f6c63430008120033",
					"opcodes": "PUSH1 0x80 PUSH1 0x40 MSTORE CALLVALUE DUP1 ISZERO PUSH2 0x10 JUMPI PUSH1 0x0 DUP1 REVERT JUMPDEST POP PUSH2 0x25E DUP1 PUSH2 0x20 PUSH1 0x0 CODECOPY PUSH1 0x0 RETURN INVALID PUSH1 0x80 PUSH1 0x40 MSTORE CALLVALUE DUP1 ISZERO PUSH2 0x10 JUMPI PUSH1 0x0 DUP1 REVERT JUMPDEST POP PUSH1 0x4 CALLDATASIZE LT PUSH2 0x41 JUMPI PUSH1 0x0 CALLDATALOAD PUSH1 0xE0 SHR DUP1 PUSH4 0x1679EC0E EQ PUSH2 0x46 JUMPI DUP1 PUSH4 0x1B8F5D50 EQ PUSH2 0x62 JUMPI DUP1 PUSH4 0x853255CC EQ PUSH2 0x80 JUMPI JUMPDEST PUSH1 0x0 DUP1 REVERT JUMPDEST PUSH2 0x60 PUSH1 0x4 DUP1 CALLDATASIZE SUB DUP2 ADD SWAP1 PUSH2 0x5B SWAP2 SWAP1 PUSH2 0x119 JUMP JUMPDEST PUSH2 0x9E JUMP JUMPDEST STOP JUMPDEST PUSH2 0x6A PUSH2 0xB0 JUMP JUMPDEST PUSH1 0x40 MLOAD PUSH2 0x77 SWAP2 SWAP1 PUSH2 0x168 JUMP JUMPDEST PUSH1 0x40 MLOAD DUP1 SWAP2 SUB SWAP1 RETURN JUMPDEST PUSH2 0x88 PUSH2 0xC7 JUMP JUMPDEST PUSH1 0x40 MLOAD PUSH2 0x95 SWAP2 SWAP1 PUSH2 0x168 JUMP JUMPDEST PUSH1 0x40 MLOAD DUP1 SWAP2 SUB SWAP1 RETURN JUMPDEST DUP2 PUSH1 0x0 DUP2 SWAP1 SSTORE POP DUP1 PUSH1 0x1 DUP2 SWAP1 SSTORE POP POP POP JUMP JUMPDEST PUSH1 0x0 PUSH1 0x1 SLOAD PUSH1 0x0 SLOAD PUSH2 0xC2 SWAP2 SWAP1 PUSH2 0x1B2 JUMP JUMPDEST SWAP1 POP SWAP1 JUMP JUMPDEST PUSH1 0x0 PUSH1 0x1 SLOAD PUSH1 0x0 SLOAD PUSH2 0xD9 SWAP2 SWAP1 PUSH2 0x1F4 JUMP JUMPDEST SWAP1 POP SWAP1 JUMP JUMPDEST PUSH1 0x0 DUP1 REVERT JUMPDEST PUSH1 0x0 DUP2 SWAP1 POP SWAP2 SWAP1 POP JUMP JUMPDEST PUSH2 0xF6 DUP2 PUSH2 0xE3 JUMP JUMPDEST DUP2 EQ PUSH2 0x101 JUMPI PUSH1 0x0 DUP1 REVERT JUMPDEST POP JUMP JUMPDEST PUSH1 0x0 DUP2 CALLDATALOAD SWAP1 POP PUSH2 0x113 DUP2 PUSH2 0xED JUMP JUMPDEST SWAP3 SWAP2 POP POP JUMP JUMPDEST PUSH1 0x0 DUP1 PUSH1 0x40 DUP4 DUP6 SUB SLT ISZERO PUSH2 0x130 JUMPI PUSH2 0x12F PUSH2 0xDE JUMP JUMPDEST JUMPDEST PUSH1 0x0 PUSH2 0x13E DUP6 DUP3 DUP7 ADD PUSH2 0x104 JUMP JUMPDEST SWAP3 POP POP PUSH1 0x20 PUSH2 0x14F DUP6 DUP3 DUP7 ADD PUSH2 0x104 JUMP JUMPDEST SWAP2 POP POP SWAP3 POP SWAP3 SWAP1 POP JUMP JUMPDEST PUSH2 0x162 DUP2 PUSH2 0xE3 JUMP JUMPDEST DUP3 MSTORE POP POP JUMP JUMPDEST PUSH1 0x0 PUSH1 0x20 DUP3 ADD SWAP1 POP PUSH2 0x17D PUSH1 0x0 DUP4 ADD DUP5 PUSH2 0x159 JUMP JUMPDEST SWAP3 SWAP2 POP POP JUMP JUMPDEST PUSH32 0x4E487B7100000000000000000000000000000000000000000000000000000000 PUSH1 0x0 MSTORE PUSH1 0x11 PUSH1 0x4 MSTORE PUSH1 0x24 PUSH1 0x0 REVERT JUMPDEST PUSH1 0x0 PUSH2 0x1BD DUP3 PUSH2 0xE3 JUMP JUMPDEST SWAP2 POP PUSH2 0x1C8 DUP4 PUSH2 0xE3 JUMP JUMPDEST SWAP3 POP DUP3 DUP3 MUL PUSH2 0x1D6 DUP2 PUSH2 0xE3 JUMP JUMPDEST SWAP2 POP DUP3 DUP3 DIV DUP5 EQ DUP4 ISZERO OR PUSH2 0x1ED JUMPI PUSH2 0x1EC PUSH2 0x183 JUMP JUMPDEST JUMPDEST POP SWAP3 SWAP2 POP POP JUMP JUMPDEST PUSH1 0x0 PUSH2 0x1FF DUP3 PUSH2 0xE3 JUMP JUMPDEST SWAP2 POP PUSH2 0x20A DUP4 PUSH2 0xE3 JUMP JUMPDEST SWAP3 POP DUP3 DUP3 ADD SWAP1 POP DUP1 DUP3 GT ISZERO PUSH2 0x222 JUMPI PUSH2 0x221 PUSH2 0x183 JUMP JUMPDEST JUMPDEST SWAP3 SWAP2 POP POP JUMP INVALID LOG2 PUSH5 0x6970667358 0x22 SLT KECCAK256 JUMPDEST SUB 0xD7 ADDRESS BLOCKHASH 0x4C 0xEB CODESIZE 0xC 0xEF PUSH17 0x8B83630ACF4511896EFDC2F15F387889E4 ADDRESS SWAP8 MSTORE 0xD8 PUSH5 0x736F6C6343 STOP ADDMOD SLT STOP CALLER "
				},
				"gasEstimates": {
					"creation": {
						"codeDepositCost": "121200",
						"executionCost": "165",
						"totalCost": "121365"
					},
					"external": {
						"inputnum(uint256,uint256)": "infinite",
						"multi()": "infinite",
						"sum()": "infinite"
					}
				},
				"methodIdentifiers": {
					"inputnum(uint256,uint256)": "1679ec0e",
					"multi()": "1b8f5d50",
					"sum()": "853255cc"
				}
			},
			"storageLayout": {
				"storage": [
					{
						"astId": 3,
						"contract": "contract.sol:Test",
						"label": "a",
						"offset": 0,
						"slot": "0",
						"type": "t_uint256"
					},
					{
						"astId": 5,
						"contract": "contract.sol:Test",
						"label": "b",
						"offset": 0,
						"slot": "1",
						"type": "t_uint256"
					}
				],
				"types": {
					"t_uint256": {
						"encoding": "inplace",
						"label": "uint256",
						"numberOfBytes": "32"
					}
				}
			},
			"userdoc": {
				"kind": "user",
				"methods": {
					"inputnum(uint256,uint256)": {
						"notice": "input Number"
					},
					"multi()": {
						"notice": "output number of input number"
					},
					"sum()": {
						"notice": "sum number of input number"
					}
				},
				"version": 1
			}
		}
	}
}